:020000040800F2
:100000001808002029020008FB19000855190008EB
:10001000F919000883040008ED1E00080000000024
:10002000000000000000000000000000FF190008B0
:100030003505000800000000FD190008011A00083D
:10004000430200084302000843020008430200087C
:10005000430200084302000843020008430200086C
:10006000430200084302000843020008430200085C
:10007000430200084302000843020008430200084C
:1000800085040008430200084302000843020008F8
:10009000430200084302000843020008430200082C
:1000A000430200084302000843020008430200081C
:1000B000430200084302000843020008430200080C
:1000C00043020008430200084302000843020008FC
:1000D0004302000843020008E11E00084302000832
:1000E00043020008430200084302000843020008DC
:1000F00043020008430200084302000843020008CC
:1001000043020008430200084302000843020008BB
:1001100043020008430200084302000843020008AB
:10012000430200084302000843020008430200089B
:10013000430200084302000843020008430200088B
:10014000430200084302000843020008430200087B
:10015000430200084302000843020008430200086B
:10016000430200084302000843020008430200085B
:100170004302000843020008430200080000000098
:10018000430200084302000800F002F800F03CF8C7
:100190000AA090E8000C82448344AAF10107DA45E2
:1001A00001D100F031F8AFF2090EBAE80F0013F0F8
:1001B000010F18BFFB1A43F00103184790200000FD
:1001C000B0200000103A24BF78C878C1FAD852078E
:1001D00024BF30C830C144BF04680C6070470000C1
:1001E0000023002400250026103A28BF78C1FBD840
:1001F000520728BF30C148BF0B6070471FB502F0DF
:100200000BF81FBD10B510BD00F001F91146FFF746
:10021000F5FF01F08FFE00F01FF903B4FFF7F2FFC6
:1002200003BC00F027F9000009488047094800474F
:10023000FEE7FEE7FEE7FEE7FEE7FEE7FEE7FEE796
:10024000FEE7FEE704480549054A064B70470000F3
:10025000991A0008890100081802002018080020D7
:10026000180400201804002053EA020C00F06980F2
:100270002DE9F04B4FF00006002B1FBFB3FA83F5BA
:1002800003FA05F424FA05F65E4012BF1643B2FAEB
:1002900082F502FA05F4C5F120051EBF22FA05FC1D
:1002A00044EA0C04203556EA044C4FEA144418BFC3
:1002B000641C4FF000084FF00009904271EB030CF2
:1002C00039D3002919BFB1FA81F701FA07F6B0FA5C
:1002D00080F700FA07F6C7F120071EBF20FA07FCD7
:1002E00046EA0C062037B6FBF4FCA7EB0507103FE7
:1002F00007F01F0BCBF120060CFA0BFB2CFA06F6CD
:1003000044BFB3460026202FA4BF5E464FF0000B2B
:100310005BEA060C08BF4FF0010B19EB0B09ABFBB6
:10032000027C48EB0608C01B06FB02CC0BFB03CC8F
:1003300071EB0C01C1E70B46024641464846BDE859
:10034000F08B13B54FF000004FF00001AFF30080C9
:10035000BDE81C40704710B5203AC0F00B80B1E8F2
:100360001850203AA0E81850B1E81850A0E81850EA
:10037000BFF4F5AF5FEA027C24BFB1E81850A0E8F3
:10038000185044BF18C918C0BDE810405FEA827C0D
:1003900024BF51F8043B40F8043B08BF7047D20724
:1003A00028BF31F8023B48BF11F8012B28BF20F8C5
:1003B000023B48BF00F8012B70474FF0000200B528
:1003C000134694469646203922BFA0E80C50A0E878
:1003D0000C50B1F12001BFF4F7AF090728BFA0E826
:1003E0000C5048BF0CC05DF804EB890028BF40F8F2
:1003F000042B08BF704748BF20F8022B11F0804F34
:1004000018BF00F8012B704770477047704775465A
:1004100000F02CF8AE4605006946534620F0070070
:10042000854618B020B5FFF70DFFBDE820404FF01E
:1004300000064FF000074FF000084FF0000B21F0CE
:100440000701AC46ACE8C009ACE8C009ACE8C0099B
:10045000ACE8C0098D46704710B50446AFF3008084
:100460002046BDE81040FFF7D8BE000000487047A6
:10047000B401002001491820ABBEFEE726000200AF
:100480007047FEE7014800F0B3B8000054010020B7
:1004900001681823CAB2103AB2FBF3F2054B6FF3AE
:1004A0000901032A9B5CC36500D9091D81650846C3
:1004B000704700002B22000810B5014600208B6910
:1004C0008A6A4FF0C07453B1B3F5005F15D072B1B2
:1004D000012A0CD0022A0AD0032A09D104E01AB159
:1004E000012A06D0022A03D1C96AC90100D5012018
:1004F00010BDC96AA142FAD010BD002AF7D0012A66
:10050000F2D0022AF3D0032AF3D010BD30B504682C
:10051000256825F480252560046863608368402B86
:10052000036803D099600068C26030BD9A600068BB
:10053000C16030BD704772B6FEE72DE9F041044658
:10054000876D00F0D7FA064694F83500002502289A
:1005500006D08020606584F834500120BDE8F08129
:100560002068016821F0160101602068416921F0CE
:1005700080014161206C08B9A06C20B1206801683D
:1005800021F0080101602068016821F0010101608B
:100590000CE000F0AFFA801B052807D92020606529
:1005A000032084F8350084F83450D7E720680068C9
:1005B000C007EED194F85C103F208840B86001205D
:1005C00084F8350084F834500020C7E790F83510DF
:1005D000022903D08021416501207047052180F860
:1005E00035100068016821F00101016000207047AA
:1005F0002DE9F84304464FF00009CDF80090634818
:100600004FF41651A56D0068B0FBF1F72E6894F811
:100610005C10082000FA01F131420FD021680A680D
:1006200052070BD50A6822F004020A6094F85C10A5
:100630008840A860606D40F00100606594F85C102F
:100640004FF0010808FA01F0304208D021684969EA
:10065000090604D5A860606D40F00200606594F85A
:100660005C1004208840304208D02168096889075E
:1006700004D5A860606D40F00400606594F85C10DB
:1006800010208840304218D021680968090714D525
:10069000A86020680168490304D50068000308D5F4
:1006A000A16C07E00168C90503D4016821F00801C5
:1006B0000160216C09B12046884794F85C10202025
:1006C0008840304231D021680968C9062DD5A8601C
:1006D00094F8350005282068016806D0490347D5FD
:1006E000006800031DD4616C1CE021F0160101605C
:1006F0002068416921F080014161206C08B9A06C3B
:1007000020B12068016821F00801016094F85C10B4
:100710003F208840A86084F8358084F83490216DAB
:100720001FE0E16B09B120468847606D00282BD09F
:10073000606DC00714D0052084F83500206801687A
:1007400021F0010101600098401C0090B84203D8DC
:1007500020680068C007F6D184F8358084F83490AA
:10076000E16C002910D001B02046BDE8F0430847F5
:100770000168C905D5D4016821F01001016084F831
:10078000358084F83490CCE7BDE8F883140000206D
:100790002DE9F041044600F0ADF906465CB10220B7
:1007A00084F83500002584F834502068016821F071
:1007B000010101600DE00120BDE8F08100F09AF92F
:1007C000801B052805D920206065032084F83500AA
:1007D000F2E720680068C007F0D12268116820485D
:1007E0000140D4E901031843D4E9033633431843E5
:1007F00063691843A3691843E3691843236A1843DC
:100800000843616A042903D1D4E90B13194308434F
:10081000106020684069666A20F0070130460E4388
:10082000012704280CD1A06A0643E06A40B12046A3
:10083000FFF742FE20B14020606584F83570BAE7CA
:10084000206846612046FFF723FE94F85C203F2194
:1008500091408160656584F835700020ACE7000048
:100860003F8010F02DE9F0410446866D90F8340089
:10087000002501280DD0012084F8340094F835704B
:100880000020012F07D084F8340002252846BDE857
:10089000F0810220FBE7022784F83570606520466E
:1008A000FFF734FE94F85C103F208840B060206869
:1008B000016841F016010160206C20B120680168D8
:1008C00041F0080101602068016841F00101016008
:1008D000DCE7000070B5044600F00CF90546601C2A
:1008E00002D004480078044400F004F9401BA04200
:1008F000FAD370BD080000202DE9F84FDFF8BCA145
:100900000022012503264FF00F090AF1040BAAF17A
:10091000040E00BF0B6805FA02F42340A34270D115
:100920000F7907F00307012F01D0022F16D1876836
:100930004FEA420806FA08FC27EA0C07D1F80CC077
:100940000CFA08FC4CEA070CC0F808C04768A7433B
:100950000C79C4F3001494403C4344600C79E443A4
:10096000A4070AD0C4684FEA420C06FA0CF7BC434D
:100970008F6807FA0CF72743C7600C7904F003046B
:10098000022C12D1D40800EB840CDCF8204057076D
:10099000FF0E09FA07F824EA0804D1F8108008FAD3
:1009A00007F848EA0408CCF8208004684FEA420CB3
:1009B00006FA0CF7BC430F7907F0030707FA0CF7A8
:1009C000274307604C6814F4403F70D03C4C2768C4
:1009D00047F480472760246822F0030704F480442A
:1009E0000094384C07EB040CDCF8084897074FEAF2
:1009F000177809FA08F7BC43334FB84202D10027F1
:100A000024E054E0314FB84201D101271EE0304FBD
:100A1000B84201D1022719E02E4FB84201D1032775
:100A200014E02D4FB84201D104270FE02B4FB842FC
:100A300001D105270AE02A4FB84201D1062705E077
:100A4000284FB84201D1072700E0082707FA08F726
:100A50002743CCF80878DAF800405746D1F804C0AC
:100A60009C435FEACC2C00D51C433C60DBF8004083
:100A70005F46D1F804C09C435FEA8C2C00D51C4330
:100A80003C60DEF800407746D1F804C09C435FEA42
:100A90008C3C00D51C433C60084F083F3C68D1F8B3
:100AA00004C09C435FEACC3C00D51C433C60521C14
:100AB000102AFFF42FAFBDE8F88F0000083C01407A
:100AC000443802400030014000000240000402406F
:100AD00000080240000C02400010024000140240D6
:100AE00000180240001C02400AB1816170470904ED
:100AF000FBE7000001488068704700000800002004
:100B000070B5040004D094F83D00002510B106E053
:100B1000012070BD84F83C50204600F017FE2420D0
:100B200084F83D002068C16821F40051C16020466E
:100B300001F0CAF82068016921F490410161206840
:100B4000416921F0220141612068416941F00801B9
:100B500041612068C16841F40051C16025642020D2
:100B600084F83D0084F83E00002070BD70B504009C
:100B700025D094F83D00002520B984F83C5020464B
:100B800000F0B8F8242084F83D002068016821F0C6
:100B9000010101602068016841F4004101602068A2
:100BA000016821F40041016000F04CFA4D4A61688F
:100BB000914201D84C4900E04C49884201D20120C1
:100BC00070BD4B492368B0FBF1F15E6826F03F062B
:100BD0000E435E606368934206D94FF4967359439F
:100BE0004FF47A73B1FBF3F12368491C1E6A26F0B7
:100BF0003F06314319626168914210D84900401E96
:100C0000B0FBF1F2521CC2F30B02042A01D2042001
:100C100022E0B0FBF1F0401CC0F30B001CE0A26826
:100C2000F2B301EBC10303EB0116431EB3FBF6F372
:100C30005B1C43F480431B0549D092B301EBC10216
:100C400002EB0111401EB0FBF1F0401CC0F30B00A1
:100C500040F4804040F400402168CA694CF6FF73BC
:100C60009A431043C861D4E9071001432068026821
:100C700022F0C00211430160D4E90301014320685E
:100C8000826848F2FF339A4311438160D4E9050139
:100C900008432168CA6822F0FF021043C86001E0DF
:100CA0000EE016E02068016841F001010160256452
:100CB000202084F83D00256384F83E50002070BD5C
:100CC00001EB4106431EB3FBF6F35B1CB3E70120C7
:100CD000C2E701EB4101401EB0FBF1F0401CC0F344
:100CE0000B00B7E7A086010080841E0000093D00CC
:100CF00040420F002DE9F04186B0044614216846B9
:100D0000FFF75BFB2F4A2168DFF8BC8000242E48E8
:100D100012250326042708F1100891421CD101680E
:100D200041F002010160006802AA00F00200059093
:100D3000B002CDE9000582E8D00069462348FFF7FC
:100D4000DBFDD8F8001041F48001C8F80010D8F895
:100D5000000000F4800031E01D4A91422FD101686B
:100D600041F004010160016801F00401059101688E
:100D700041F0010101600068694600F00100059042
:100D80005015CDE9000502AA124882E8D000FFF70D
:100D9000B3FD4FF48070CDE9000502AA694682E8F0
:100DA000D0000D48FFF7A8FDD8F8001041F400016D
:100DB000C8F80010D8F8000000F40000059006B054
:100DC000BDE8F08100580040303802400004024085
:100DD000005C0040000802400000024002488168B8
:100DE0000278114481607047080000200B4810B55C
:100DF000016841F400710160016841F480610160A3
:100E0000016841F480710160032000F06FF80F2049
:100E100000F006F800F024F8002010BD003C02406D
:100E200070B50D4D04464FF47A712878B1FBF0F09F
:100E30000A490968B1FBF0F000F00CFB48B9102C2E
:100E400007D200222146501E00F030F800206C60CE
:100E500070BD012070BD00000800002014000020BB
:100E60000A4808B5016841F480410160006800F457
:100E7000804000900548001F016841F080510160EA
:100E8000006800F08050009008BD00004438024027
:100E9000002809DB00F01F02012191404009800079
:100EA00000F1E020C0F8001170470000F0B40E4BD4
:100EB0001B680C46C3F30223C3F10705042D00D9B8
:100EC0000425191D072901D2002300E0DB1E01269D
:100ED00006FA05F1491E214099409E40761E1640B3
:100EE0003143F0BC01F003B80CED00E0064900F01E
:100EF000070208684FF6FF03184040EA0220034A41
:100F000010430860704700000CED00E00000FA0597
:100F10002DE9F0470E46050065D0DFF81481D8F8BA
:100F20000000F7B200F00700B04207D288F8007066
:100F3000D8F8000000F00700B04254D128683D4CBA
:100F4000810712D5400703D5206840F4E0502060A7
:100F50002878000703D5206840F4604020602068AE
:100F6000A96820F0F000084320602878C0072DD041
:100F7000304968680839012812D0022813D00328A4
:100F800011D00968890700292DDA216821F00301B1
:100F900001432160FFF7AEFD814641F2883A0EE041
:100FA00009688903EFE709688901ECE7FFF7A2FD0B
:100FB000A0EB0901514502D90320BDE8F087206864
:100FC000696800F00C00B0EB810FEFD1D8F8001089
:100FD000404601F00701B14207D90770006800F0F0
:100FE0000700B04201D00120E7E72878400705D587
:100FF0002068E96820F4E050084320602878000762
:1010000006D52068296920F4604040EAC1002060CC
:1010100000F038F82168084AC1F30311515CC84058
:101020000649086006480068FFF7FAFE0020C4E79A
:10103000003C02400838024033220008140000201F
:101040000C0000200448054900680968044AC1F3FF
:101050008221515CC84070471400002008380240CB
:10106000432200080448054900680968044AC1F39E
:101070004231515CC84070471400002008380240DB
:1010800043220008154810B5006810F00C021448FF
:1010900013D01449042A0FD0082A0ED10F4C241F54
:1010A0002268236802F03F025B0207D52068C0F384
:1010B0008810A0FB010106E0084610BD2168C1F3BD
:1010C0008811A1FB00010023FFF7CEF82168C1F3CE
:1010D0000141491C4900B0FBF1F010BD0838024045
:1010E0000024F40040787D012DE9F84F04006ED013
:1010F0002078DFF84C93C007A9F104054AD009F124
:1011000004000168C1F38101012908D00068C0F31F
:10111000810002280AD1D9F80000400206D52868CB
:10112000800337D560680028E1D033E06068B0F50F
:10113000803F10D0B0F5A02F286810D020F4803068
:101140002860286820F4802028606068A8B1FFF734
:10115000D1FC06460DE0286840F48030F4E740F406
:1011600080202860F7E700BFFFF7C4FC801B6428DD
:1011700073D828688003F7D50CE0FFF7BBFC064660
:1011800005E000BFFFF7B6FC801B6428F0D8286894
:101190008003F7D42078DFF8AC8280074FF0000A94
:1011A0003ED5A748001D016811F00C0F08D000685B
:1011B000C0F3810002280BD1D9F80000400207D407
:1011C0002868800716D5E068012800D112E033E1D5
:1011D000E068B8B10120C8F80000FFF78BFC0646B4
:1011E00005E000BFFFF786FC801B0228C0D82868F6
:1011F0008007F7D52868216920F0F80040EAC1008F
:1012000028600DE0C8F800A0FFF774FC064604E073
:10121000FFF770FC801B02281FD828688007F7D4CE
:101220002078000722D5864F87486169703771B1F1
:1012300001210160FFF75EFC064604E0FFF75AFC5F
:10124000801B022809D838688007F7D50EE0C0F85F
:1012500000A0FFF74FFC064605E082E0FFF74AFCDE
:10126000801B02287DD838688007F7D42078400793
:1012700068D5DFF8CCB100270BF13C0BDBF80000A0
:10128000C0000BD4DBF8001041F08051CBF8001007
:10129000DBF80000012700F0805000906B4E3068B2
:1012A000C00510D4306840F480703060FFF722FC35
:1012B000009005E0FFF71EFC0099401A022850D864
:1012C0003068C005F6D55E4EA0686C3601280FD098
:1012D0000528306810D020F001003060306820F020
:1012E00004003060A068B8B1FFF704FC00900FE084
:1012F000306840F00100F4E740F004003060F7E7A8
:10130000FFF7F8FB0099411A41F28830814266D814
:1013100030688007F4D50EE0FFF7ECFB009007E0A3
:10132000FFF7E8FB0099411A41F28830814256D814
:1013300030688007F4D42FB1DBF8001021F0805121
:10134000CBF80010A069C8B33D49091D0968C1F375
:10135000810102294AD00228504607D0C8F860000F
:1013600000E03CE0FFF7C6FB04463BE04746C8F818
:101370006000FFF7BFFB064605E000BFFFF7BAFBC2
:10138000801B02282BD828688001F7D4D4E90701F4
:101390000843A16A2E4A490802EB0141626A41EA08
:1013A0008211084394F82C1040EA0161C9F800103A
:1013B00001203866FFF79EFB044606E03EE000BFD2
:1013C000FFF798FB001B022809D828688001F7D591
:1013D00034E000BFFFF78EFB001B022802D9032078
:1013E000BDE8F88F28688001F4D427E00128F7D001
:1013F000D9F80000E26900F4800191421CD1226A10
:1014000000F03F01914217D147F6C071626A014076
:10141000B1EB821F10D1A26A4FF0FF3300F44031CC
:1014200003EB5202B1EB024F06D194F82C1000F0FE
:101430007060B0EB016F01D00120D1E70020CFE751
:101440000438024000004742800E474200700040CE
:101450000000FFFF10B5401EB0F1807F01D30120D6
:1014600010BD4FF0E02460610F21601700F03FFDD8
:101470000020A06107202061002010BD7047704748
:10148000F8B5016804460868CA684B6910F00F0F88
:101490004FF0000559D003F0010602F4907737436E
:1014A00065D0C10705D0D10503D5216C41F00101FC
:1014B0002164410705D5D90703D0216C41F0020111
:1014C0002164810705D5D90703D0216C41F00401BF
:1014D0002164010707D502F02001314303D0216CBC
:1014E00041F008012164216C00293AD0800604D51E
:1014F000900602D5204600F087FB20684069216CE9
:10150000C0F38010090700D460B3204600F047FB09
:1015100020684069400621D52068143050E8001F3B
:1015200021F0400140E80012002AF5D1A06BA8B1DB
:101530006C490165A06BFFF749F8002811D0A06B3A
:10154000016D01B0BDE8F040084783060FD5930652
:101550000DD52046BDE8F84000F056BB2046FFF709
:101560008EFFF8BD2046FFF78AFF2564F8BD266B85
:101570002023012E79D1C60677D5D60675D5086801
:10158000486800904869400640D5A16B08684068EB
:101590000004000CEAD0A28D8242E7D9E085C86938
:1015A000B0F5807F2DD020680C3050E8001F21F46A
:1015B000807140E80012002AF5D12068143050E80C
:1015C000001F21F0010140E80012002AF5D1206837
:1015D000143050E8001F21F0400140E80012002ABA
:1015E000F5D184F83E30256320680C3050E8001FA8
:1015F00021F0100140E80012002AF5D1A06BFEF79F
:101600009CFFA08DE18D401A81B229E0A08DE18D73
:10161000401A81B2E08D0028A8D00029A6D0206809
:101620000C3050E8002F22F4907240E80026002E83
:10163000F5D12068143050E8002F22F0010240E874
:101640000026002EF5D184F83E30256320680C304A
:1016500050E8002F22F0100240E80023002BF5D1C3
:101660002046FFF70BFFF8BDFFE705062BD5150653
:1016700029D594F83D002128F5D1A068B0F5805F08
:1016800001D12069B0B1206A411C21622168007833
:101690004860E08C401E0004000CE084E3D1206828
:1016A000C16821F08001C1602068C16841F040013B
:1016B000C160D8E7206A0088C0F308004860206A4B
:1016C000801C2062E5E74006CDD55006CBD5CA6820
:1016D000204622F04002CA6084F83D3000F039F91B
:1016E000C1E70000A91A000870B5040004D094F8FE
:1016F0003D00002510B106E0012070BD84F83C508B
:10170000204600F023F8242084F83D002068C168BA
:1017100021F40051C160204600F0D6FA206801692A
:1017200021F4904101612068416921F02A01416161
:101730002068C16841F40051C1602564202084F80C
:101740003D0084F83E00002070BD0000F0B587B079
:10175000064614216846FEF730FE3449324F34689D
:101760000025324810390322314BBC421DD1046898
:1017700044F400240460006800F400200590086828
:1017800040F0010008600868694600F0010005901B
:10179000012000901220CDE901050820CDE90320A9
:1017A0001846FFF7A9F807B0F0BD224FBC42FAD1A6
:1017B000046844F400340460006800F400300590CC
:1017C000086840F0010008600868694600F0010000
:1017D00005900C2000900220CDE901050720CDE9FD
:1017E00003201846FFF788F8144C134820604FF088
:1017F0000060C4E901054014C4E903506561A561B6
:10180000E561256220466562FEF7C2FF08B1FEF77A
:1018100092FEB463002211462620A663FFF746FB22
:101820002620FFF735FBBEE7004C00404038024061
:101830000000024000440040886002405401002043
:1018400090F83E30202B0ED159B152B190F83C3077
:10185000012B08D0012380F83C300023036300F003
:10186000B9BA012070470220704700000EB5002071
:101870000290084809220168009141680191007AAC
:101880008DF8080069460448FEF765FD024800F03F
:10189000F1FB0EBD22220008480100207047000025
:1018A0002DE9F843044690F83D001F4616460D46C4
:1018B00020284CD1C5B1BEB194F83C00012846D0D7
:1018C000012084F83C004FF00008C4F8408021203B
:1018D00084F83D00FFF70EF9A6848146E684A068EF
:1018E000B0F5805F03D004E00120BDE8F8832069F3
:1018F00028B12E465FF0000584F83C800EE00026FB
:10190000FAE78021204600F0AFFAA0B9AEB116F890
:10191000010B21684860E08C401EE084E08C4B465F
:101920004FF0000200970028EBD14FF04001204615
:1019300000F09AFA30B10320D7E735F8020BC0F374
:101940000800E6E7202084F83D000020CDE70220D3
:10195000CBE77047FEE7000070B586B014216846FB
:10196000FEF72BFD22480024016841F08001016050
:10197000016801F080010591016841F001010160F9
:10198000016801F001010591016841F00201016067
:10199000016801F002010591016841F00801016050
:1019A000016801F008010591016841F0040101603E
:1019B000016801F004010591016841F01001016026
:1019C00000680C4E00F010004FF4007505900022E6
:1019D00029463046FFF788F801200095CDE901043B
:1019E000694630460394FEF787FF06B070BD0000DD
:1019F0003038024000040240FEE7FEE770477047BF
:101A0000FFF7ECB930B593B030216846FEF7D5FC4E
:101A100014210CA8FEF7D1FC1D480025016841F0F7
:101A200080510160006800F08050119019480168F1
:101A300041F4804101600068022400F4804011906C
:101A40000120039010200490009406940820CDE912
:101A50000750A820CDE9090404200B906846FFF741
:101A600043FB08B172B6FEE70CA90F2081E83100F4
:101A70004FF4A0500F904FF48050109005210CA807
:101A8000FFF746FA002801D072B6FEE713B030BD6A
:101A900040380240007000400248016841F4700183
:101AA0000160704788ED00E010B5806B0021C185B2
:101AB000C184FFF7E4FC10BD70B5846B20684069F9
:101AC00094F83D10C0F3C0100025212904D118B1AD
:101AD000E584204600F08AF82068406994F83E10BA
:101AE000C0F38010222904D118B1E585204600F00A
:101AF00056F8206C40F0100020642046FFF7BFFC31
:101B000070BD10B50146806B09680968C9052FD4FE
:101B10000021C18501680C3151E8002F22F4807248
:101B200041E80023002BF5D10168143151E8002F62
:101B300022F0010241E80023002BF5D101681431A5
:101B400051E8002F22F0400241E80023002BF5D19C
:101B5000202180F83E10016B012909D101680C3168
:101B600051E8002F22F0100241E80023002BF5D1AC
:101B7000016B012902D0FFF779FE10BD818DFFF7BF
:101B80007DFC10BD10B5806B016B012902D0FFF701
:101B900085FE10BD818D4908FFF770FC10BD0168FE
:101BA0000C3151E8002F22F4907241E80023002B01
:101BB000F5D10168143151E8002F22F0010241E80B
:101BC0000023002BF5D1016B012909D101680C31EB
:101BD00051E8002F22F0100241E80023002BF5D13C
:101BE000202180F83E1000210163704701680C310C
:101BF00051E8002F22F0C00241E80023002BF5D16C
:101C0000202180F83D10704708B590F83E10222939
:101C100001D0022008BD82684FF480539A4201D15E
:101C2000016921B1816A9A421BD04AB10AE0026877
:101C3000816A5268C2F308020A80816A891C08E03E
:101C4000026972B10268526802F07F020A70816A0A
:101C5000491C8162C18D491E0904090CC18503D04C
:101C600019E002685268F1E70168CA6822F02002B0
:101C7000CA600168CA6822F48072CA6001684A6951
:101C800022F001024A61202180F83E10016B0129F7
:101C900003D0FFF7EBFD002008BD002101630168C0
:101CA0000C3151E8002F22F0100241E80023002BF4
:101CB000F5D101680A68D20602D50A684968009120
:101CC000818DFFF7DBFBE6E770B50446006801692C
:101CD000E26821F44051114301612169A068E26981
:101CE00008436169114308432168CA6849F20C63DB
:101CF0009A430243CA6020684169A26921F4407195
:101D00001143416131492068884202D030498842FC
:101D100002D1FFF7A7F901E0FFF794F9E269002388
:101D2000192164253226B2F5004F626828D0A0FB45
:101D30000101930F9200FEF797FA0146B0FBF5F010
:101D40006FF01802504301EB800006EB0010B0FB6F
:101D5000F5F000F0F002B1FBF5F002EB0012B1FB80
:101D6000F5F06FF01803584301EB800006EB00100C
:101D7000B0FBF5F000F00F0021681044886070BDE2
:101D8000A0FB010192185B41FEF76EFA0146B0FB21
:101D9000F5F00201B1FBF5F06FF01803584301EBC9
:101DA000800006EBC000B0FBF5F000F0F80002EB9D
:101DB0004002B1FBF5F0584301EB800006EBC00098
:101DC000B0FBF5F000F00700D6E70000001001407E
:101DD0000014014038B5816282850025134604460F
:101DE0000564222084F83E00A26B1C48D063A26BDD
:101DF0001B481064A26B1B48D064A06B0A460565A3
:101E00002168A06B091DFEF72DFD20680168406860
:101E1000009084F83C50206948B120680C3050E8AC
:101E2000001F41F4807140E80012002AF5D12068BB
:101E3000143050E8001F41F0010140E80012002A70
:101E4000F5D12068143050E8001F41F0400140E80F
:101E50000012002AF5D1002038BD0000031B000845
:101E6000851B0008B91A00082DE9F041984617466D
:101E70000E460446069D27E0681C25D02DB1FEF7CE
:101E800039FEA0EB0800A8421ED920680C3050E8AB
:101E9000001F21F4D07140E80012002AF5D120681B
:101EA000143050E8001F21F0010140E80012002A20
:101EB000F5D1202084F83D0084F83E00002084F80D
:101EC0003C000320BDE8F0812068006836EA00008D
:101ED00004D00020B842CFD00020F3E70120F9E77A
:101EE0000148FFF7CDBA000004010020FEE7090712
:101EF000090E002804DB00F1E02080F80014704790
:101F000000F00F0000F1E02080F8141D7047034638
:101F100010B50020024604E09C5C521C2044C0B274
:101F2000D2B28A42F8D310BD014948607047000020
:101F3000000000200EB5FEF759FFFFF763FDFFF725
:101F40000BFD44480024016841F400110160006861
:101F5000224600F40010009021461020FEF7A6FF54
:101F60001020FEF795FF3D483B490C2501604FF4DA
:101F7000E131C0E90114C460C0E904458461C46171
:101F8000FFF7B2FB08B172B6FEE734483449EC38CB
:101F9000344E0160C0E901640F14C0E90347446195
:101FA0008461C4610462FEF7E1FD08B172B6FEE728
:101FB0002A482D49443801602C49C0E90114C46005
:101FC000C0E904458461C461FEF79AFD08B172B6A8
:101FD000FEE72248264998380160C0E90164C0E95B
:101FE000034744618461C4610462FEF7BFFD08B128
:101FF00072B6FEE71948FFF797FF00F071F841F25B
:102000008830FEF767FC154D6FF06306443507E036
:1020100032464621502000F0CDF86420FEF75AFCED
:10202000A8790128F4D101260A274FF4FA650A237A
:102030000096CDE901741A461946184600F058F882
:102040002846FEF747FC00F093F82846FEF742FCCE
:10205000EDE7000030380240004400400401002059
:1020600000580040A0860100004C004040420F0094
:10207000005C004019490A78A52A28D14A785A2AD2
:1020800025D189780122012910D0022910D00329F5
:1020900010D0042910D0052910D0062910D0072906
:1020A00010D0082910D0092910D010E002700EE0DD
:1020B00042700CE082700AE0C27008E0027106E033
:1020C000427104E0827102E0C27100E002720349D1
:1020D000032208464068FFF7B3BB00000000002061
:1020E0000249032208464068FFF7AABB000000200F
:1020F0002DE9FF470CAE96E8300218A696E8C0110D
:102100008DE8C011060A8DF80400080A8DF8050054
:102110008DF806108DF80820100A8DF809308DF81A
:1021200007008DF80A408DF803608DF80B508DF88C
:102130000C9010216846FFF7EAFE8DF80F000B485F
:102140000A23102269464068FFF7AAFB18B1002055
:1021500004B0BDE8F0870120FAE70000A55A0300AB
:10216000000000000000000000000000000000204F
:102170001FB50BA30FCB8DE80F0010216846FFF7AA
:10218000C6FE8DF80F000A480A23102269464068EF
:10219000FFF786FB10B1002004B010BD0120FBE763
:1021A000A55A02000000000000000000000000002E
:1021B000000000207FB513A678CE8DE87800030AD2
:1021C0008DF80400080A8DF805008DF80610100A35
:1021D0008DF807008DF803308DF80820102168462F
:1021E000FFF795FE8DF80F000A480A231022694672
:1021F0004068FFF755FB10B1002004B070BD01200E
:10220000FBE70000A55A07000000000000000000E6
:1022100000000000000000204FF04070E1EE100AC6
:1022200070470000000000000000000006101600CB
:102230000610160000000000000000010203040662
:102240000708090000000001020304006C220008D6
:102250000000002018000000C401000884220008CB
:102260001800002000080000E00100080000000045
:10227000000000000100000010000000000000004D
:042280000024F40042
:040000050800018965
:00000001FF
